{
    "contractName": "Lottery",
    "abi": [
        {
            "constant": true,
            "inputs": [],
            "name": "manager",
            "outputs": [
                {
                    "name": "",
                    "type": "address"
                }
            ],
            "payable": false,
            "stateMutability": "view",
            "type": "function"
        },
        {
            "constant": true,
            "inputs": [
                {
                    "name": "",
                    "type": "uint256"
                }
            ],
            "name": "players",
            "outputs": [
                {
                    "name": "",
                    "type": "address"
                }
            ],
            "payable": false,
            "stateMutability": "view",
            "type": "function"
        },
        {
            "inputs": [],
            "payable": false,
            "stateMutability": "nonpayable",
            "type": "constructor"
        },
        {
            "constant": false,
            "inputs": [],
            "name": "enter",
            "outputs": [],
            "payable": true,
            "stateMutability": "payable",
            "type": "function"
        },
        {
            "constant": false,
            "inputs": [],
            "name": "pickWinner",
            "outputs": [],
            "payable": false,
            "stateMutability": "nonpayable",
            "type": "function"
        },
        {
            "constant": true,
            "inputs": [],
            "name": "getPlayers",
            "outputs": [
                {
                    "name": "",
                    "type": "address[]"
                }
            ],
            "payable": false,
            "stateMutability": "view",
            "type": "function"
        }
    ],
    "bytecode": "0x608060405234801561001057600080fd5b50336000806101000a81548173ffffffffffffffffffffffffffffffffffffffff021916908373ffffffffffffffffffffffffffffffffffffffff160217905550610633806100606000396000f3fe60806040526004361061006d576000357c0100000000000000000000000000000000000000000000000000000000900463ffffffff168063481c6a75146100725780635d495aea146100c95780638b5b9ccc146100e0578063e97dcb621461014c578063f71d96cb14610156575b600080fd5b34801561007e57600080fd5b506100876101d1565b604051808273ffffffffffffffffffffffffffffffffffffffff1673ffffffffffffffffffffffffffffffffffffffff16815260200191505060405180910390f35b3480156100d557600080fd5b506100de6101f6565b005b3480156100ec57600080fd5b506100f561034e565b6040518080602001828103825283818151815260200191508051906020019060200280838360005b8381101561013857808201518184015260208101905061011d565b505050509050019250505060405180910390f35b6101546103dc565b005b34801561016257600080fd5b5061018f6004803603602081101561017957600080fd5b8101908080359060200190929190505050610459565b604051808273ffffffffffffffffffffffffffffffffffffffff1673ffffffffffffffffffffffffffffffffffffffff16815260200191505060405180910390f35b6000809054906101000a900473ffffffffffffffffffffffffffffffffffffffff1681565b6000809054906101000a900473ffffffffffffffffffffffffffffffffffffffff1673ffffffffffffffffffffffffffffffffffffffff163373ffffffffffffffffffffffffffffffffffffffff1614151561025157600080fd5b6000600180549050610261610497565b81151561026a57fe5b06905060018181548110151561027c57fe5b9060005260206000200160009054906101000a900473ffffffffffffffffffffffffffffffffffffffff1673ffffffffffffffffffffffffffffffffffffffff166108fc3073ffffffffffffffffffffffffffffffffffffffff16319081150290604051600060405180830381858888f19350505050158015610303573d6000803e3d6000fd5b5060006040519080825280602002602001820160405280156103345781602001602082028038833980820191505090505b506001908051906020019061034a92919061053a565b5050565b606060018054806020026020016040519081016040528092919081815260200182805480156103d257602002820191906000526020600020905b8160009054906101000a900473ffffffffffffffffffffffffffffffffffffffff1673ffffffffffffffffffffffffffffffffffffffff1681526020019060010190808311610388575b5050505050905090565b662386f26fc10000341115156103f157600080fd5b60013390806001815401808255809150509060018203906000526020600020016000909192909190916101000a81548173ffffffffffffffffffffffffffffffffffffffff021916908373ffffffffffffffffffffffffffffffffffffffff16021790555050565b60018181548110151561046857fe5b906000526020600020016000915054906101000a900473ffffffffffffffffffffffffffffffffffffffff1681565b60004442600160405160200180848152602001838152602001828054801561051457602002820191906000526020600020905b8160009054906101000a900473ffffffffffffffffffffffffffffffffffffffff1673ffffffffffffffffffffffffffffffffffffffff16815260200190600101908083116104ca575b505093505050506040516020818303038152906040528051906020012060019004905090565b8280548282559060005260206000209081019282156105b3579160200282015b828111156105b25782518260006101000a81548173ffffffffffffffffffffffffffffffffffffffff021916908373ffffffffffffffffffffffffffffffffffffffff1602179055509160200191906001019061055a565b5b5090506105c091906105c4565b5090565b61060491905b8082111561060057600081816101000a81549073ffffffffffffffffffffffffffffffffffffffff0219169055506001016105ca565b5090565b9056fea165627a7a7230582051737fcad2f749793d961e6466678a5dfd5832aa9a8b097ec616eebd783191880029",
    "source": "pragma solidity ^0.5.0;\n\ncontract Lottery {\n    address public  manager;\n    address payable[] public  players ;\n\n    constructor() public {\n        manager = msg.sender;\n    }\n\n    function enter() public payable {\n        require(msg.value > .01 ether);\n\n        players.push(msg.sender);\n    }\n\n    function random() private view returns (uint) {\n        return uint(keccak256(abi.encodePacked(block.difficulty,now,players)));\n    }\n\n    function pickWinner()  public restricted {\n        uint index = random() % players.length;\n        players[index].transfer(address(this).balance);\n        players = new address payable[](0);\n    }\n\n    modifier restricted() {\n        require(msg.sender == manager);\n        _;\n    }\n\n    function getPlayers() public view returns (address payable[] memory) {\n        return players;\n    }\n}\n",
    "sourcePath": "/Users/comstice/devEth/react3/lottery-react/contracts/Lottery.sol",
    "compiler": {
        "name": "solc",
        "version": "0.5.0+commit.1d4f565a.Emscripten.clang"
    },
    "schemaVersion": "3.0.9",
    "updatedAt": "2019-05-09T19:26:00.384Z",
    "devdoc": {
        "methods": {}
    },
    "userdoc": {
        "methods": {}
    }
}